{
  "_format": "hh-sol-artifact-1",
  "contractName": "RealEstate",
  "sourceName": "contracts/RealEstate.sol",
  "abi": [
    {
      "inputs": [],
      "stateMutability": "nonpayable",
      "type": "constructor"
    },
    {
      "anonymous": false,
      "inputs": [
        {
          "indexed": true,
          "internalType": "address",
          "name": "owner",
          "type": "address"
        },
        {
          "indexed": true,
          "internalType": "address",
          "name": "approved",
          "type": "address"
        },
        {
          "indexed": true,
          "internalType": "uint256",
          "name": "tokenId",
          "type": "uint256"
        }
      ],
      "name": "Approval",
      "type": "event"
    },
    {
      "anonymous": false,
      "inputs": [
        {
          "indexed": true,
          "internalType": "address",
          "name": "owner",
          "type": "address"
        },
        {
          "indexed": true,
          "internalType": "address",
          "name": "operator",
          "type": "address"
        },
        {
          "indexed": false,
          "internalType": "bool",
          "name": "approved",
          "type": "bool"
        }
      ],
      "name": "ApprovalForAll",
      "type": "event"
    },
    {
      "anonymous": false,
      "inputs": [
        {
          "indexed": false,
          "internalType": "uint256",
          "name": "_fromTokenId",
          "type": "uint256"
        },
        {
          "indexed": false,
          "internalType": "uint256",
          "name": "_toTokenId",
          "type": "uint256"
        }
      ],
      "name": "BatchMetadataUpdate",
      "type": "event"
    },
    {
      "anonymous": false,
      "inputs": [
        {
          "indexed": false,
          "internalType": "uint256",
          "name": "_tokenId",
          "type": "uint256"
        }
      ],
      "name": "MetadataUpdate",
      "type": "event"
    },
    {
      "anonymous": false,
      "inputs": [
        {
          "indexed": true,
          "internalType": "address",
          "name": "from",
          "type": "address"
        },
        {
          "indexed": true,
          "internalType": "address",
          "name": "to",
          "type": "address"
        },
        {
          "indexed": true,
          "internalType": "uint256",
          "name": "tokenId",
          "type": "uint256"
        }
      ],
      "name": "Transfer",
      "type": "event"
    },
    {
      "inputs": [
        {
          "internalType": "address",
          "name": "to",
          "type": "address"
        },
        {
          "internalType": "uint256",
          "name": "tokenId",
          "type": "uint256"
        }
      ],
      "name": "approve",
      "outputs": [],
      "stateMutability": "nonpayable",
      "type": "function"
    },
    {
      "inputs": [
        {
          "internalType": "address",
          "name": "owner",
          "type": "address"
        }
      ],
      "name": "balanceOf",
      "outputs": [
        {
          "internalType": "uint256",
          "name": "",
          "type": "uint256"
        }
      ],
      "stateMutability": "view",
      "type": "function"
    },
    {
      "inputs": [
        {
          "internalType": "uint256",
          "name": "tokenId",
          "type": "uint256"
        }
      ],
      "name": "getApproved",
      "outputs": [
        {
          "internalType": "address",
          "name": "",
          "type": "address"
        }
      ],
      "stateMutability": "view",
      "type": "function"
    },
    {
      "inputs": [
        {
          "internalType": "address",
          "name": "owner",
          "type": "address"
        },
        {
          "internalType": "address",
          "name": "operator",
          "type": "address"
        }
      ],
      "name": "isApprovedForAll",
      "outputs": [
        {
          "internalType": "bool",
          "name": "",
          "type": "bool"
        }
      ],
      "stateMutability": "view",
      "type": "function"
    },
    {
      "inputs": [
        {
          "internalType": "string",
          "name": "tokenURI",
          "type": "string"
        }
      ],
      "name": "mint",
      "outputs": [
        {
          "internalType": "uint256",
          "name": "",
          "type": "uint256"
        }
      ],
      "stateMutability": "nonpayable",
      "type": "function"
    },
    {
      "inputs": [],
      "name": "name",
      "outputs": [
        {
          "internalType": "string",
          "name": "",
          "type": "string"
        }
      ],
      "stateMutability": "view",
      "type": "function"
    },
    {
      "inputs": [
        {
          "internalType": "uint256",
          "name": "tokenId",
          "type": "uint256"
        }
      ],
      "name": "ownerOf",
      "outputs": [
        {
          "internalType": "address",
          "name": "",
          "type": "address"
        }
      ],
      "stateMutability": "view",
      "type": "function"
    },
    {
      "inputs": [
        {
          "internalType": "address",
          "name": "from",
          "type": "address"
        },
        {
          "internalType": "address",
          "name": "to",
          "type": "address"
        },
        {
          "internalType": "uint256",
          "name": "tokenId",
          "type": "uint256"
        }
      ],
      "name": "safeTransferFrom",
      "outputs": [],
      "stateMutability": "nonpayable",
      "type": "function"
    },
    {
      "inputs": [
        {
          "internalType": "address",
          "name": "from",
          "type": "address"
        },
        {
          "internalType": "address",
          "name": "to",
          "type": "address"
        },
        {
          "internalType": "uint256",
          "name": "tokenId",
          "type": "uint256"
        },
        {
          "internalType": "bytes",
          "name": "data",
          "type": "bytes"
        }
      ],
      "name": "safeTransferFrom",
      "outputs": [],
      "stateMutability": "nonpayable",
      "type": "function"
    },
    {
      "inputs": [
        {
          "internalType": "address",
          "name": "operator",
          "type": "address"
        },
        {
          "internalType": "bool",
          "name": "approved",
          "type": "bool"
        }
      ],
      "name": "setApprovalForAll",
      "outputs": [],
      "stateMutability": "nonpayable",
      "type": "function"
    },
    {
      "inputs": [
        {
          "internalType": "bytes4",
          "name": "interfaceId",
          "type": "bytes4"
        }
      ],
      "name": "supportsInterface",
      "outputs": [
        {
          "internalType": "bool",
          "name": "",
          "type": "bool"
        }
      ],
      "stateMutability": "view",
      "type": "function"
    },
    {
      "inputs": [],
      "name": "symbol",
      "outputs": [
        {
          "internalType": "string",
          "name": "",
          "type": "string"
        }
      ],
      "stateMutability": "view",
      "type": "function"
    },
    {
      "inputs": [
        {
          "internalType": "uint256",
          "name": "tokenId",
          "type": "uint256"
        }
      ],
      "name": "tokenURI",
      "outputs": [
        {
          "internalType": "string",
          "name": "",
          "type": "string"
        }
      ],
      "stateMutability": "view",
      "type": "function"
    },
    {
      "inputs": [],
      "name": "totalSupply",
      "outputs": [
        {
          "internalType": "uint256",
          "name": "",
          "type": "uint256"
        }
      ],
      "stateMutability": "view",
      "type": "function"
    },
    {
      "inputs": [
        {
          "internalType": "address",
          "name": "from",
          "type": "address"
        },
        {
          "internalType": "address",
          "name": "to",
          "type": "address"
        },
        {
          "internalType": "uint256",
          "name": "tokenId",
          "type": "uint256"
        }
      ],
      "name": "transferFrom",
      "outputs": [],
      "stateMutability": "nonpayable",
      "type": "function"
    }
  ],
  "bytecode": "0x60806040523480156200001157600080fd5b506040518060400160405280600b81526020017f5265616c204573746174650000000000000000000000000000000000000000008152506040518060400160405280600481526020017f5245414c0000000000000000000000000000000000000000000000000000000081525081600090816200008f919062000324565b508060019081620000a1919062000324565b5050506200040b565b600081519050919050565b7f4e487b7100000000000000000000000000000000000000000000000000000000600052604160045260246000fd5b7f4e487b7100000000000000000000000000000000000000000000000000000000600052602260045260246000fd5b600060028204905060018216806200012c57607f821691505b602082108103620001425762000141620000e4565b5b50919050565b60008190508160005260206000209050919050565b60006020601f8301049050919050565b600082821b905092915050565b600060088302620001ac7fffffffffffffffffffffffffffffffffffffffffffffffffffffffffffffffff826200016d565b620001b886836200016d565b95508019841693508086168417925050509392505050565b6000819050919050565b6000819050919050565b600062000205620001ff620001f984620001d0565b620001da565b620001d0565b9050919050565b6000819050919050565b6200022183620001e4565b6200023962000230826200020c565b8484546200017a565b825550505050565b600090565b6200025062000241565b6200025d81848462000216565b505050565b5b8181101562000285576200027960008262000246565b60018101905062000263565b5050565b601f821115620002d4576200029e8162000148565b620002a9846200015d565b81016020851015620002b9578190505b620002d1620002c8856200015d565b83018262000262565b50505b505050565b600082821c905092915050565b6000620002f960001984600802620002d9565b1980831691505092915050565b6000620003148383620002e6565b9150826002028217905092915050565b6200032f82620000aa565b67ffffffffffffffff8111156200034b576200034a620000b5565b5b62000357825462000113565b6200036482828562000289565b600060209050601f8311600181146200039c576000841562000387578287015190505b62000393858262000306565b86555062000403565b601f198416620003ac8662000148565b60005b82811015620003d657848901518255600182019150602085019450602081019050620003af565b86831015620003f65784890151620003f2601f891682620002e6565b8355505b6001600288020188555050505b505050505050565b612b7e806200041b6000396000f3fe608060405234801561001057600080fd5b50600436106100f55760003560e01c80636352211e11610097578063b88d4fde11610066578063b88d4fde14610284578063c87b56dd146102a0578063d85d3d27146102d0578063e985e9c514610300576100f5565b80636352211e146101ea57806370a082311461021a57806395d89b411461024a578063a22cb46514610268576100f5565b8063095ea7b3116100d3578063095ea7b31461017857806318160ddd1461019457806323b872dd146101b257806342842e0e146101ce576100f5565b806301ffc9a7146100fa57806306fdde031461012a578063081812fc14610148575b600080fd5b610114600480360381019061010f9190611a80565b610330565b6040516101219190611ac8565b60405180910390f35b610132610391565b60405161013f9190611b73565b60405180910390f35b610162600480360381019061015d9190611bcb565b610423565b60405161016f9190611c39565b60405180910390f35b610192600480360381019061018d9190611c80565b610469565b005b61019c610580565b6040516101a99190611ccf565b60405180910390f35b6101cc60048036038101906101c79190611cea565b610591565b005b6101e860048036038101906101e39190611cea565b6105f1565b005b61020460048036038101906101ff9190611bcb565b610611565b6040516102119190611c39565b60405180910390f35b610234600480360381019061022f9190611d3d565b610697565b6040516102419190611ccf565b60405180910390f35b61025261074e565b60405161025f9190611b73565b60405180910390f35b610282600480360381019061027d9190611d96565b6107e0565b005b61029e60048036038101906102999190611f0b565b6107f6565b005b6102ba60048036038101906102b59190611bcb565b610858565b6040516102c79190611b73565b60405180910390f35b6102ea60048036038101906102e5919061202f565b61096a565b6040516102f79190611ccf565b60405180910390f35b61031a60048036038101906103159190612078565b6109a0565b6040516103279190611ac8565b60405180910390f35b6000634906490660e01b7bffffffffffffffffffffffffffffffffffffffffffffffffffffffff1916827bffffffffffffffffffffffffffffffffffffffffffffffffffffffff1916148061038a575061038982610a34565b5b9050919050565b6060600080546103a0906120e7565b80601f01602080910402602001604051908101604052809291908181526020018280546103cc906120e7565b80156104195780601f106103ee57610100808354040283529160200191610419565b820191906000526020600020905b8154815290600101906020018083116103fc57829003601f168201915b5050505050905090565b600061042e82610b16565b6004600083815260200190815260200160002060009054906101000a900473ffffffffffffffffffffffffffffffffffffffff169050919050565b600061047482610611565b90508073ffffffffffffffffffffffffffffffffffffffff168373ffffffffffffffffffffffffffffffffffffffff16036104e4576040517f08c379a00000000000000000000000000000000000000000000000000000000081526004016104db9061218a565b60405180910390fd5b8073ffffffffffffffffffffffffffffffffffffffff16610503610b61565b73ffffffffffffffffffffffffffffffffffffffff16148061053257506105318161052c610b61565b6109a0565b5b610571576040517f08c379a00000000000000000000000000000000000000000000000000000000081526004016105689061221c565b60405180910390fd5b61057b8383610b69565b505050565b600061058c6007610c22565b905090565b6105a261059c610b61565b82610c30565b6105e1576040517f08c379a00000000000000000000000000000000000000000000000000000000081526004016105d8906122ae565b60405180910390fd5b6105ec838383610cc5565b505050565b61060c838383604051806020016040528060008152506107f6565b505050565b60008061061d83610fbe565b9050600073ffffffffffffffffffffffffffffffffffffffff168173ffffffffffffffffffffffffffffffffffffffff160361068e576040517f08c379a00000000000000000000000000000000000000000000000000000000081526004016106859061231a565b60405180910390fd5b80915050919050565b60008073ffffffffffffffffffffffffffffffffffffffff168273ffffffffffffffffffffffffffffffffffffffff1603610707576040517f08c379a00000000000000000000000000000000000000000000000000000000081526004016106fe906123ac565b60405180910390fd5b600360008373ffffffffffffffffffffffffffffffffffffffff1673ffffffffffffffffffffffffffffffffffffffff168152602001908152602001600020549050919050565b60606001805461075d906120e7565b80601f0160208091040260200160405190810160405280929190818152602001828054610789906120e7565b80156107d65780601f106107ab576101008083540402835291602001916107d6565b820191906000526020600020905b8154815290600101906020018083116107b957829003601f168201915b5050505050905090565b6107f26107eb610b61565b8383610ffb565b5050565b610807610801610b61565b83610c30565b610846576040517f08c379a000000000000000000000000000000000000000000000000000000000815260040161083d906122ae565b60405180910390fd5b61085284848484611167565b50505050565b606061086382610b16565b6000600660008481526020019081526020016000208054610883906120e7565b80601f01602080910402602001604051908101604052809291908181526020018280546108af906120e7565b80156108fc5780601f106108d1576101008083540402835291602001916108fc565b820191906000526020600020905b8154815290600101906020018083116108df57829003601f168201915b50505050509050600061090d6111c3565b90506000815103610922578192505050610965565b60008251111561095757808260405160200161093f929190612408565b60405160208183030381529060405292505050610965565b610960846111da565b925050505b919050565b6000806109776007610c22565b90506109836007611242565b61098d3382611258565b6109978184611276565b80915050919050565b6000600560008473ffffffffffffffffffffffffffffffffffffffff1673ffffffffffffffffffffffffffffffffffffffff16815260200190815260200160002060008373ffffffffffffffffffffffffffffffffffffffff1673ffffffffffffffffffffffffffffffffffffffff16815260200190815260200160002060009054906101000a900460ff16905092915050565b60007f80ac58cd000000000000000000000000000000000000000000000000000000007bffffffffffffffffffffffffffffffffffffffffffffffffffffffff1916827bffffffffffffffffffffffffffffffffffffffffffffffffffffffff19161480610aff57507f5b5e139f000000000000000000000000000000000000000000000000000000007bffffffffffffffffffffffffffffffffffffffffffffffffffffffff1916827bffffffffffffffffffffffffffffffffffffffffffffffffffffffff1916145b80610b0f5750610b0e8261131a565b5b9050919050565b610b1f81611384565b610b5e576040517f08c379a0000000000000000000000000000000000000000000000000000000008152600401610b559061231a565b60405180910390fd5b50565b600033905090565b816004600083815260200190815260200160002060006101000a81548173ffffffffffffffffffffffffffffffffffffffff021916908373ffffffffffffffffffffffffffffffffffffffff160217905550808273ffffffffffffffffffffffffffffffffffffffff16610bdc83610611565b73ffffffffffffffffffffffffffffffffffffffff167f8c5be1e5ebec7d5bd14f71427d1e84f3dd0314c0f7b2291e5b200ac8c7c3b92560405160405180910390a45050565b600081600001549050919050565b600080610c3c83610611565b90508073ffffffffffffffffffffffffffffffffffffffff168473ffffffffffffffffffffffffffffffffffffffff161480610c7e5750610c7d81856109a0565b5b80610cbc57508373ffffffffffffffffffffffffffffffffffffffff16610ca484610423565b73ffffffffffffffffffffffffffffffffffffffff16145b91505092915050565b8273ffffffffffffffffffffffffffffffffffffffff16610ce582610611565b73ffffffffffffffffffffffffffffffffffffffff1614610d3b576040517f08c379a0000000000000000000000000000000000000000000000000000000008152600401610d329061249e565b60405180910390fd5b600073ffffffffffffffffffffffffffffffffffffffff168273ffffffffffffffffffffffffffffffffffffffff1603610daa576040517f08c379a0000000000000000000000000000000000000000000000000000000008152600401610da190612530565b60405180910390fd5b610db783838360016113c5565b8273ffffffffffffffffffffffffffffffffffffffff16610dd782610611565b73ffffffffffffffffffffffffffffffffffffffff1614610e2d576040517f08c379a0000000000000000000000000000000000000000000000000000000008152600401610e249061249e565b60405180910390fd5b6004600082815260200190815260200160002060006101000a81549073ffffffffffffffffffffffffffffffffffffffff02191690556001600360008573ffffffffffffffffffffffffffffffffffffffff1673ffffffffffffffffffffffffffffffffffffffff168152602001908152602001600020600082825403925050819055506001600360008473ffffffffffffffffffffffffffffffffffffffff1673ffffffffffffffffffffffffffffffffffffffff16815260200190815260200160002060008282540192505081905550816002600083815260200190815260200160002060006101000a81548173ffffffffffffffffffffffffffffffffffffffff021916908373ffffffffffffffffffffffffffffffffffffffff160217905550808273ffffffffffffffffffffffffffffffffffffffff168473ffffffffffffffffffffffffffffffffffffffff167fddf252ad1be2c89b69c2b068fc378daa952ba7f163c4a11628f55a4df523b3ef60405160405180910390a4610fb983838360016113cb565b505050565b60006002600083815260200190815260200160002060009054906101000a900473ffffffffffffffffffffffffffffffffffffffff169050919050565b8173ffffffffffffffffffffffffffffffffffffffff168373ffffffffffffffffffffffffffffffffffffffff1603611069576040517f08c379a00000000000000000000000000000000000000000000000000000000081526004016110609061259c565b60405180910390fd5b80600560008573ffffffffffffffffffffffffffffffffffffffff1673ffffffffffffffffffffffffffffffffffffffff16815260200190815260200160002060008473ffffffffffffffffffffffffffffffffffffffff1673ffffffffffffffffffffffffffffffffffffffff16815260200190815260200160002060006101000a81548160ff0219169083151502179055508173ffffffffffffffffffffffffffffffffffffffff168373ffffffffffffffffffffffffffffffffffffffff167f17307eab39ab6107e8899845ad3d59bd9653f200f220920489ca2b5937696c318360405161115a9190611ac8565b60405180910390a3505050565b611172848484610cc5565b61117e848484846113d1565b6111bd576040517f08c379a00000000000000000000000000000000000000000000000000000000081526004016111b49061262e565b60405180910390fd5b50505050565b606060405180602001604052806000815250905090565b60606111e582610b16565b60006111ef6111c3565b9050600081511161120f576040518060200160405280600081525061123a565b8061121984611558565b60405160200161122a929190612408565b6040516020818303038152906040525b915050919050565b6001816000016000828254019250508190555050565b611272828260405180602001604052806000815250611626565b5050565b61127f82611384565b6112be576040517f08c379a00000000000000000000000000000000000000000000000000000000081526004016112b5906126c0565b60405180910390fd5b806006600084815260200190815260200160002090816112de919061288c565b507ff8e1a15aba9398e019f0b49df1a4fde98ee17ae345cb5f6b5e2c27f5033e8ce78260405161130e9190611ccf565b60405180910390a15050565b60007f01ffc9a7000000000000000000000000000000000000000000000000000000007bffffffffffffffffffffffffffffffffffffffffffffffffffffffff1916827bffffffffffffffffffffffffffffffffffffffffffffffffffffffff1916149050919050565b60008073ffffffffffffffffffffffffffffffffffffffff166113a683610fbe565b73ffffffffffffffffffffffffffffffffffffffff1614159050919050565b50505050565b50505050565b60006113f28473ffffffffffffffffffffffffffffffffffffffff16611681565b1561154b578373ffffffffffffffffffffffffffffffffffffffff1663150b7a0261141b610b61565b8786866040518563ffffffff1660e01b815260040161143d94939291906129b3565b6020604051808303816000875af192505050801561147957506040513d601f19601f820116820180604052508101906114769190612a14565b60015b6114fb573d80600081146114a9576040519150601f19603f3d011682016040523d82523d6000602084013e6114ae565b606091505b5060008151036114f3576040517f08c379a00000000000000000000000000000000000000000000000000000000081526004016114ea9061262e565b60405180910390fd5b805181602001fd5b63150b7a0260e01b7bffffffffffffffffffffffffffffffffffffffffffffffffffffffff1916817bffffffffffffffffffffffffffffffffffffffffffffffffffffffff191614915050611550565b600190505b949350505050565b606060006001611567846116a4565b01905060008167ffffffffffffffff81111561158657611585611de0565b5b6040519080825280601f01601f1916602001820160405280156115b85781602001600182028036833780820191505090505b509050600082602001820190505b60011561161b578080600190039150507f3031323334353637383961626364656600000000000000000000000000000000600a86061a8153600a858161160f5761160e612a41565b5b049450600085036115c6575b819350505050919050565b61163083836117f7565b61163d60008484846113d1565b61167c576040517f08c379a00000000000000000000000000000000000000000000000000000000081526004016116739061262e565b60405180910390fd5b505050565b6000808273ffffffffffffffffffffffffffffffffffffffff163b119050919050565b600080600090507a184f03e93ff9f4daa797ed6e38ed64bf6a1f0100000000000000008310611702577a184f03e93ff9f4daa797ed6e38ed64bf6a1f01000000000000000083816116f8576116f7612a41565b5b0492506040810190505b6d04ee2d6d415b85acef8100000000831061173f576d04ee2d6d415b85acef8100000000838161173557611734612a41565b5b0492506020810190505b662386f26fc10000831061176e57662386f26fc10000838161176457611763612a41565b5b0492506010810190505b6305f5e1008310611797576305f5e100838161178d5761178c612a41565b5b0492506008810190505b61271083106117bc5761271083816117b2576117b1612a41565b5b0492506004810190505b606483106117df57606483816117d5576117d4612a41565b5b0492506002810190505b600a83106117ee576001810190505b80915050919050565b600073ffffffffffffffffffffffffffffffffffffffff168273ffffffffffffffffffffffffffffffffffffffff1603611866576040517f08c379a000000000000000000000000000000000000000000000000000000000815260040161185d90612abc565b60405180910390fd5b61186f81611384565b156118af576040517f08c379a00000000000000000000000000000000000000000000000000000000081526004016118a690612b28565b60405180910390fd5b6118bd6000838360016113c5565b6118c681611384565b15611906576040517f08c379a00000000000000000000000000000000000000000000000000000000081526004016118fd90612b28565b60405180910390fd5b6001600360008473ffffffffffffffffffffffffffffffffffffffff1673ffffffffffffffffffffffffffffffffffffffff16815260200190815260200160002060008282540192505081905550816002600083815260200190815260200160002060006101000a81548173ffffffffffffffffffffffffffffffffffffffff021916908373ffffffffffffffffffffffffffffffffffffffff160217905550808273ffffffffffffffffffffffffffffffffffffffff16600073ffffffffffffffffffffffffffffffffffffffff167fddf252ad1be2c89b69c2b068fc378daa952ba7f163c4a11628f55a4df523b3ef60405160405180910390a4611a106000838360016113cb565b5050565b6000604051905090565b600080fd5b600080fd5b60007fffffffff0000000000000000000000000000000000000000000000000000000082169050919050565b611a5d81611a28565b8114611a6857600080fd5b50565b600081359050611a7a81611a54565b92915050565b600060208284031215611a9657611a95611a1e565b5b6000611aa484828501611a6b565b91505092915050565b60008115159050919050565b611ac281611aad565b82525050565b6000602082019050611add6000830184611ab9565b92915050565b600081519050919050565b600082825260208201905092915050565b60005b83811015611b1d578082015181840152602081019050611b02565b60008484015250505050565b6000601f19601f8301169050919050565b6000611b4582611ae3565b611b4f8185611aee565b9350611b5f818560208601611aff565b611b6881611b29565b840191505092915050565b60006020820190508181036000830152611b8d8184611b3a565b905092915050565b6000819050919050565b611ba881611b95565b8114611bb357600080fd5b50565b600081359050611bc581611b9f565b92915050565b600060208284031215611be157611be0611a1e565b5b6000611bef84828501611bb6565b91505092915050565b600073ffffffffffffffffffffffffffffffffffffffff82169050919050565b6000611c2382611bf8565b9050919050565b611c3381611c18565b82525050565b6000602082019050611c4e6000830184611c2a565b92915050565b611c5d81611c18565b8114611c6857600080fd5b50565b600081359050611c7a81611c54565b92915050565b60008060408385031215611c9757611c96611a1e565b5b6000611ca585828601611c6b565b9250506020611cb685828601611bb6565b9150509250929050565b611cc981611b95565b82525050565b6000602082019050611ce46000830184611cc0565b92915050565b600080600060608486031215611d0357611d02611a1e565b5b6000611d1186828701611c6b565b9350506020611d2286828701611c6b565b9250506040611d3386828701611bb6565b9150509250925092565b600060208284031215611d5357611d52611a1e565b5b6000611d6184828501611c6b565b91505092915050565b611d7381611aad565b8114611d7e57600080fd5b50565b600081359050611d9081611d6a565b92915050565b60008060408385031215611dad57611dac611a1e565b5b6000611dbb85828601611c6b565b9250506020611dcc85828601611d81565b9150509250929050565b600080fd5b600080fd5b7f4e487b7100000000000000000000000000000000000000000000000000000000600052604160045260246000fd5b611e1882611b29565b810181811067ffffffffffffffff82111715611e3757611e36611de0565b5b80604052505050565b6000611e4a611a14565b9050611e568282611e0f565b919050565b600067ffffffffffffffff821115611e7657611e75611de0565b5b611e7f82611b29565b9050602081019050919050565b82818337600083830152505050565b6000611eae611ea984611e5b565b611e40565b905082815260208101848484011115611eca57611ec9611ddb565b5b611ed5848285611e8c565b509392505050565b600082601f830112611ef257611ef1611dd6565b5b8135611f02848260208601611e9b565b91505092915050565b60008060008060808587031215611f2557611f24611a1e565b5b6000611f3387828801611c6b565b9450506020611f4487828801611c6b565b9350506040611f5587828801611bb6565b925050606085013567ffffffffffffffff811115611f7657611f75611a23565b5b611f8287828801611edd565b91505092959194509250565b600067ffffffffffffffff821115611fa957611fa8611de0565b5b611fb282611b29565b9050602081019050919050565b6000611fd2611fcd84611f8e565b611e40565b905082815260208101848484011115611fee57611fed611ddb565b5b611ff9848285611e8c565b509392505050565b600082601f83011261201657612015611dd6565b5b8135612026848260208601611fbf565b91505092915050565b60006020828403121561204557612044611a1e565b5b600082013567ffffffffffffffff81111561206357612062611a23565b5b61206f84828501612001565b91505092915050565b6000806040838503121561208f5761208e611a1e565b5b600061209d85828601611c6b565b92505060206120ae85828601611c6b565b9150509250929050565b7f4e487b7100000000000000000000000000000000000000000000000000000000600052602260045260246000fd5b600060028204905060018216806120ff57607f821691505b602082108103612112576121116120b8565b5b50919050565b7f4552433732313a20617070726f76616c20746f2063757272656e74206f776e6560008201527f7200000000000000000000000000000000000000000000000000000000000000602082015250565b6000612174602183611aee565b915061217f82612118565b604082019050919050565b600060208201905081810360008301526121a381612167565b9050919050565b7f4552433732313a20617070726f76652063616c6c6572206973206e6f7420746f60008201527f6b656e206f776e6572206f7220617070726f76656420666f7220616c6c000000602082015250565b6000612206603d83611aee565b9150612211826121aa565b604082019050919050565b60006020820190508181036000830152612235816121f9565b9050919050565b7f4552433732313a2063616c6c6572206973206e6f7420746f6b656e206f776e6560008201527f72206f7220617070726f76656400000000000000000000000000000000000000602082015250565b6000612298602d83611aee565b91506122a38261223c565b604082019050919050565b600060208201905081810360008301526122c78161228b565b9050919050565b7f4552433732313a20696e76616c696420746f6b656e2049440000000000000000600082015250565b6000612304601883611aee565b915061230f826122ce565b602082019050919050565b60006020820190508181036000830152612333816122f7565b9050919050565b7f4552433732313a2061646472657373207a65726f206973206e6f74206120766160008201527f6c6964206f776e65720000000000000000000000000000000000000000000000602082015250565b6000612396602983611aee565b91506123a18261233a565b604082019050919050565b600060208201905081810360008301526123c581612389565b9050919050565b600081905092915050565b60006123e282611ae3565b6123ec81856123cc565b93506123fc818560208601611aff565b80840191505092915050565b600061241482856123d7565b915061242082846123d7565b91508190509392505050565b7f4552433732313a207472616e736665722066726f6d20696e636f72726563742060008201527f6f776e6572000000000000000000000000000000000000000000000000000000602082015250565b6000612488602583611aee565b91506124938261242c565b604082019050919050565b600060208201905081810360008301526124b78161247b565b9050919050565b7f4552433732313a207472616e7366657220746f20746865207a65726f2061646460008201527f7265737300000000000000000000000000000000000000000000000000000000602082015250565b600061251a602483611aee565b9150612525826124be565b604082019050919050565b600060208201905081810360008301526125498161250d565b9050919050565b7f4552433732313a20617070726f766520746f2063616c6c657200000000000000600082015250565b6000612586601983611aee565b915061259182612550565b602082019050919050565b600060208201905081810360008301526125b581612579565b9050919050565b7f4552433732313a207472616e7366657220746f206e6f6e20455243373231526560008201527f63656976657220696d706c656d656e7465720000000000000000000000000000602082015250565b6000612618603283611aee565b9150612623826125bc565b604082019050919050565b600060208201905081810360008301526126478161260b565b9050919050565b7f45524337323155524953746f726167653a2055524920736574206f66206e6f6e60008201527f6578697374656e7420746f6b656e000000000000000000000000000000000000602082015250565b60006126aa602e83611aee565b91506126b58261264e565b604082019050919050565b600060208201905081810360008301526126d98161269d565b9050919050565b60008190508160005260206000209050919050565b60006020601f8301049050919050565b600082821b905092915050565b6000600883026127427fffffffffffffffffffffffffffffffffffffffffffffffffffffffffffffffff82612705565b61274c8683612705565b95508019841693508086168417925050509392505050565b6000819050919050565b600061278961278461277f84611b95565b612764565b611b95565b9050919050565b6000819050919050565b6127a38361276e565b6127b76127af82612790565b848454612712565b825550505050565b600090565b6127cc6127bf565b6127d781848461279a565b505050565b5b818110156127fb576127f06000826127c4565b6001810190506127dd565b5050565b601f82111561284057612811816126e0565b61281a846126f5565b81016020851015612829578190505b61283d612835856126f5565b8301826127dc565b50505b505050565b600082821c905092915050565b600061286360001984600802612845565b1980831691505092915050565b600061287c8383612852565b9150826002028217905092915050565b61289582611ae3565b67ffffffffffffffff8111156128ae576128ad611de0565b5b6128b882546120e7565b6128c38282856127ff565b600060209050601f8311600181146128f657600084156128e4578287015190505b6128ee8582612870565b865550612956565b601f198416612904866126e0565b60005b8281101561292c57848901518255600182019150602085019450602081019050612907565b868310156129495784890151612945601f891682612852565b8355505b6001600288020188555050505b505050505050565b600081519050919050565b600082825260208201905092915050565b60006129858261295e565b61298f8185612969565b935061299f818560208601611aff565b6129a881611b29565b840191505092915050565b60006080820190506129c86000830187611c2a565b6129d56020830186611c2a565b6129e26040830185611cc0565b81810360608301526129f4818461297a565b905095945050505050565b600081519050612a0e81611a54565b92915050565b600060208284031215612a2a57612a29611a1e565b5b6000612a38848285016129ff565b91505092915050565b7f4e487b7100000000000000000000000000000000000000000000000000000000600052601260045260246000fd5b7f4552433732313a206d696e7420746f20746865207a65726f2061646472657373600082015250565b6000612aa6602083611aee565b9150612ab182612a70565b602082019050919050565b60006020820190508181036000830152612ad581612a99565b9050919050565b7f4552433732313a20746f6b656e20616c7265616479206d696e74656400000000600082015250565b6000612b12601c83611aee565b9150612b1d82612adc565b602082019050919050565b60006020820190508181036000830152612b4181612b05565b905091905056fea2646970667358221220a59acf7192ef1e8d4315902f81e23a23e3e45d54531a2ee7b31604b4b19e341464736f6c63430008110033",
  "linkReferences": {},
  "deployedLinkReferences": {}
}