{
  "_format": "hh-sol-artifact-1",
  "contractName": "Escrow",
  "sourceName": "contracts/Escrow.sol",
  "abi": [
    {
      "inputs": [
        {
          "internalType": "address",
          "name": "_nftContract",
          "type": "address"
        },
        {
          "internalType": "address payable",
          "name": "_seller",
          "type": "address"
        },
        {
          "internalType": "address",
          "name": "_inspector",
          "type": "address"
        },
        {
          "internalType": "address",
          "name": "_lender",
          "type": "address"
        }
      ],
      "stateMutability": "nonpayable",
      "type": "constructor"
    },
    {
      "inputs": [
        {
          "internalType": "uint256",
          "name": "",
          "type": "uint256"
        },
        {
          "internalType": "address",
          "name": "",
          "type": "address"
        }
      ],
      "name": "approval",
      "outputs": [
        {
          "internalType": "bool",
          "name": "",
          "type": "bool"
        }
      ],
      "stateMutability": "view",
      "type": "function"
    },
    {
      "inputs": [
        {
          "internalType": "uint256",
          "name": "_nftID",
          "type": "uint256"
        }
      ],
      "name": "approveSale",
      "outputs": [],
      "stateMutability": "nonpayable",
      "type": "function"
    },
    {
      "inputs": [
        {
          "internalType": "uint256",
          "name": "",
          "type": "uint256"
        }
      ],
      "name": "buyer",
      "outputs": [
        {
          "internalType": "address",
          "name": "",
          "type": "address"
        }
      ],
      "stateMutability": "view",
      "type": "function"
    },
    {
      "inputs": [
        {
          "internalType": "uint256",
          "name": "_nftID",
          "type": "uint256"
        }
      ],
      "name": "cancelSale",
      "outputs": [],
      "stateMutability": "nonpayable",
      "type": "function"
    },
    {
      "inputs": [
        {
          "internalType": "uint256",
          "name": "_nftID",
          "type": "uint256"
        }
      ],
      "name": "depositErnest",
      "outputs": [],
      "stateMutability": "payable",
      "type": "function"
    },
    {
      "inputs": [
        {
          "internalType": "uint256",
          "name": "",
          "type": "uint256"
        }
      ],
      "name": "escrowAmount",
      "outputs": [
        {
          "internalType": "uint256",
          "name": "",
          "type": "uint256"
        }
      ],
      "stateMutability": "view",
      "type": "function"
    },
    {
      "inputs": [
        {
          "internalType": "uint256",
          "name": "_nftID",
          "type": "uint256"
        }
      ],
      "name": "finalizeSale",
      "outputs": [],
      "stateMutability": "nonpayable",
      "type": "function"
    },
    {
      "inputs": [],
      "name": "getBalance",
      "outputs": [
        {
          "internalType": "uint256",
          "name": "",
          "type": "uint256"
        }
      ],
      "stateMutability": "view",
      "type": "function"
    },
    {
      "inputs": [
        {
          "internalType": "uint256",
          "name": "",
          "type": "uint256"
        }
      ],
      "name": "inspectionPassed",
      "outputs": [
        {
          "internalType": "bool",
          "name": "",
          "type": "bool"
        }
      ],
      "stateMutability": "view",
      "type": "function"
    },
    {
      "inputs": [],
      "name": "inspector",
      "outputs": [
        {
          "internalType": "address",
          "name": "",
          "type": "address"
        }
      ],
      "stateMutability": "view",
      "type": "function"
    },
    {
      "inputs": [
        {
          "internalType": "uint256",
          "name": "",
          "type": "uint256"
        }
      ],
      "name": "isListed",
      "outputs": [
        {
          "internalType": "bool",
          "name": "",
          "type": "bool"
        }
      ],
      "stateMutability": "view",
      "type": "function"
    },
    {
      "inputs": [],
      "name": "lender",
      "outputs": [
        {
          "internalType": "address",
          "name": "",
          "type": "address"
        }
      ],
      "stateMutability": "view",
      "type": "function"
    },
    {
      "inputs": [
        {
          "internalType": "uint256",
          "name": "_nftID",
          "type": "uint256"
        },
        {
          "internalType": "address",
          "name": "_buyer",
          "type": "address"
        },
        {
          "internalType": "uint256",
          "name": "_purchasePrice",
          "type": "uint256"
        },
        {
          "internalType": "uint256",
          "name": "_escrowAmount",
          "type": "uint256"
        }
      ],
      "name": "list",
      "outputs": [],
      "stateMutability": "payable",
      "type": "function"
    },
    {
      "inputs": [],
      "name": "nftContract",
      "outputs": [
        {
          "internalType": "contract IERC721",
          "name": "",
          "type": "address"
        }
      ],
      "stateMutability": "view",
      "type": "function"
    },
    {
      "inputs": [
        {
          "internalType": "uint256",
          "name": "",
          "type": "uint256"
        }
      ],
      "name": "purchasePrice",
      "outputs": [
        {
          "internalType": "uint256",
          "name": "",
          "type": "uint256"
        }
      ],
      "stateMutability": "view",
      "type": "function"
    },
    {
      "inputs": [],
      "name": "seller",
      "outputs": [
        {
          "internalType": "address payable",
          "name": "",
          "type": "address"
        }
      ],
      "stateMutability": "view",
      "type": "function"
    },
    {
      "inputs": [
        {
          "internalType": "uint256",
          "name": "_nftID",
          "type": "uint256"
        },
        {
          "internalType": "bool",
          "name": "_passed",
          "type": "bool"
        }
      ],
      "name": "updateInspectionStatus",
      "outputs": [],
      "stateMutability": "nonpayable",
      "type": "function"
    },
    {
      "stateMutability": "payable",
      "type": "receive"
    }
  ],
  "bytecode": "0x60806040523480156200001157600080fd5b5060405162001940380380620019408339818101604052810190620000379190620001f3565b83600360006101000a81548173ffffffffffffffffffffffffffffffffffffffff021916908373ffffffffffffffffffffffffffffffffffffffff16021790555082600260006101000a81548173ffffffffffffffffffffffffffffffffffffffff021916908373ffffffffffffffffffffffffffffffffffffffff16021790555081600160006101000a81548173ffffffffffffffffffffffffffffffffffffffff021916908373ffffffffffffffffffffffffffffffffffffffff160217905550806000806101000a81548173ffffffffffffffffffffffffffffffffffffffff021916908373ffffffffffffffffffffffffffffffffffffffff1602179055505050505062000265565b600080fd5b600073ffffffffffffffffffffffffffffffffffffffff82169050919050565b6000620001768262000149565b9050919050565b620001888162000169565b81146200019457600080fd5b50565b600081519050620001a8816200017d565b92915050565b6000620001bb8262000149565b9050919050565b620001cd81620001ae565b8114620001d957600080fd5b50565b600081519050620001ed81620001c2565b92915050565b6000806000806080858703121562000210576200020f62000144565b5b6000620002208782880162000197565b94505060206200023387828801620001dc565b9350506040620002468782880162000197565b9250506060620002598782880162000197565b91505092959194509250565b6116cb80620002756000396000f3fe6080604052600436106101025760003560e01c8063aa92938011610095578063be0958ec11610064578063be0958ec14610364578063c9f0ec7e14610380578063d56d229d1461039c578063ed2cee9e146103c7578063fcce4883146103f257610109565b8063aa929380146102aa578063b848de35146102d3578063bcead63e14610310578063bd94b0051461033b57610109565b80635d19e56c116100d15780635d19e56c146101ca5780635eed5fff1461020757806377fbc4ae146102445780639d0e5fd61461028157610109565b806308551a531461010e57806312065fe01461013957806314a72feb146101645780634dd4acaf1461018d57610109565b3661010957005b600080fd5b34801561011a57600080fd5b5061012361042f565b6040516101309190611035565b60405180910390f35b34801561014557600080fd5b5061014e610455565b60405161015b9190611069565b60405180910390f35b34801561017057600080fd5b5061018b600480360381019061018691906110b5565b61045d565b005b34801561019957600080fd5b506101b460048036038101906101af91906110b5565b6104c9565b6040516101c19190611103565b60405180910390f35b3480156101d657600080fd5b506101f160048036038101906101ec91906110b5565b6104fc565b6040516101fe9190611069565b60405180910390f35b34801561021357600080fd5b5061022e600480360381019061022991906110b5565b610514565b60405161023b9190611139565b60405180910390f35b34801561025057600080fd5b5061026b600480360381019061026691906110b5565b610534565b6040516102789190611069565b60405180910390f35b34801561028d57600080fd5b506102a860048036038101906102a39190611180565b61054c565b005b3480156102b657600080fd5b506102d160048036038101906102cc91906110b5565b61060b565b005b3480156102df57600080fd5b506102fa60048036038101906102f591906111ec565b6109ff565b6040516103079190611139565b60405180910390f35b34801561031c57600080fd5b50610325610a2e565b6040516103329190611103565b60405180910390f35b34801561034757600080fd5b50610362600480360381019061035d91906110b5565b610a52565b005b61037e600480360381019061037991906110b5565b610c56565b005b61039a6004803603810190610395919061122c565b610d52565b005b3480156103a857600080fd5b506103b1610f88565b6040516103be91906112f2565b60405180910390f35b3480156103d357600080fd5b506103dc610fae565b6040516103e99190611103565b60405180910390f35b3480156103fe57600080fd5b50610419600480360381019061041491906110b5565b610fd4565b6040516104269190611139565b60405180910390f35b600260009054906101000a900473ffffffffffffffffffffffffffffffffffffffff1681565b600047905090565b60016009600083815260200190815260200160002060003373ffffffffffffffffffffffffffffffffffffffff1673ffffffffffffffffffffffffffffffffffffffff16815260200190815260200160002060006101000a81548160ff02191690831515021790555050565b60076020528060005260406000206000915054906101000a900473ffffffffffffffffffffffffffffffffffffffff1681565b60066020528060005260406000206000915090505481565b60086020528060005260406000206000915054906101000a900460ff1681565b60056020528060005260406000206000915090505481565b600160009054906101000a900473ffffffffffffffffffffffffffffffffffffffff1673ffffffffffffffffffffffffffffffffffffffff163373ffffffffffffffffffffffffffffffffffffffff16146105dc576040517f08c379a00000000000000000000000000000000000000000000000000000000081526004016105d390611390565b60405180910390fd5b806008600084815260200190815260200160002060006101000a81548160ff0219169083151502179055505050565b6004600082815260200190815260200160002060009054906101000a900460ff1661066b576040517f08c379a0000000000000000000000000000000000000000000000000000000008152600401610662906113fc565b60405180910390fd5b6008600082815260200190815260200160002060009054906101000a900460ff1661069557600080fd5b6009600082815260200190815260200160002060006007600084815260200190815260200160002060009054906101000a900473ffffffffffffffffffffffffffffffffffffffff1673ffffffffffffffffffffffffffffffffffffffff1673ffffffffffffffffffffffffffffffffffffffff16815260200190815260200160002060009054906101000a900460ff1661072f57600080fd5b600960008281526020019081526020016000206000600260009054906101000a900473ffffffffffffffffffffffffffffffffffffffff1673ffffffffffffffffffffffffffffffffffffffff1673ffffffffffffffffffffffffffffffffffffffff16815260200190815260200160002060009054906101000a900460ff166107b857600080fd5b6009600082815260200190815260200160002060008060009054906101000a900473ffffffffffffffffffffffffffffffffffffffff1673ffffffffffffffffffffffffffffffffffffffff1673ffffffffffffffffffffffffffffffffffffffff16815260200190815260200160002060009054906101000a900460ff1661084057600080fd5b600560008281526020019081526020016000205447101561086057600080fd5b60006004600083815260200190815260200160002060006101000a81548160ff0219169083151502179055506000600260009054906101000a900473ffffffffffffffffffffffffffffffffffffffff1673ffffffffffffffffffffffffffffffffffffffff1660056000848152602001908152602001600020546040516108e79061144d565b60006040518083038185875af1925050503d8060008114610924576040519150601f19603f3d011682016040523d82523d6000602084013e610929565b606091505b505090508061093757600080fd5b600360009054906101000a900473ffffffffffffffffffffffffffffffffffffffff1673ffffffffffffffffffffffffffffffffffffffff166323b872dd306007600086815260200190815260200160002060009054906101000a900473ffffffffffffffffffffffffffffffffffffffff16856040518463ffffffff1660e01b81526004016109c993929190611462565b600060405180830381600087803b1580156109e357600080fd5b505af11580156109f7573d6000803e3d6000fd5b505050505050565b60096020528160005260406000206020528060005260406000206000915091509054906101000a900460ff1681565b60008054906101000a900473ffffffffffffffffffffffffffffffffffffffff1681565b6004600082815260200190815260200160002060009054906101000a900460ff16610ab2576040517f08c379a0000000000000000000000000000000000000000000000000000000008152600401610aa9906113fc565b60405180910390fd5b60006004600083815260200190815260200160002060006101000a81548160ff021916908315150217905550600015156008600083815260200190815260200160002060009054906101000a900460ff16151503610bb95760006007600083815260200190815260200160002060009054906101000a900473ffffffffffffffffffffffffffffffffffffffff1673ffffffffffffffffffffffffffffffffffffffff1647604051610b639061144d565b60006040518083038185875af1925050503d8060008114610ba0576040519150601f19603f3d011682016040523d82523d6000602084013e610ba5565b606091505b5050905080610bb357600080fd5b50610c53565b6000600260009054906101000a900473ffffffffffffffffffffffffffffffffffffffff1673ffffffffffffffffffffffffffffffffffffffff1647604051610c019061144d565b60006040518083038185875af1925050503d8060008114610c3e576040519150601f19603f3d011682016040523d82523d6000602084013e610c43565b606091505b5050905080610c5157600080fd5b505b50565b806007600082815260200190815260200160002060009054906101000a900473ffffffffffffffffffffffffffffffffffffffff1673ffffffffffffffffffffffffffffffffffffffff163373ffffffffffffffffffffffffffffffffffffffff1614610cf8576040517f08c379a0000000000000000000000000000000000000000000000000000000008152600401610cef9061150b565b60405180910390fd5b6006600083815260200190815260200160002054341015610d4e576040517f08c379a0000000000000000000000000000000000000000000000000000000008152600401610d4590611577565b60405180910390fd5b5050565b600260009054906101000a900473ffffffffffffffffffffffffffffffffffffffff1673ffffffffffffffffffffffffffffffffffffffff163373ffffffffffffffffffffffffffffffffffffffff1614610de2576040517f08c379a0000000000000000000000000000000000000000000000000000000008152600401610dd990611609565b60405180910390fd5b6004600085815260200190815260200160002060009054906101000a900460ff1615610e43576040517f08c379a0000000000000000000000000000000000000000000000000000000008152600401610e3a90611675565b60405180910390fd5b600360009054906101000a900473ffffffffffffffffffffffffffffffffffffffff1673ffffffffffffffffffffffffffffffffffffffff166323b872dd3330876040518463ffffffff1660e01b8152600401610ea293929190611462565b600060405180830381600087803b158015610ebc57600080fd5b505af1158015610ed0573d6000803e3d6000fd5b5050505060016004600086815260200190815260200160002060006101000a81548160ff021916908315150217905550816005600086815260200190815260200160002081905550806006600086815260200190815260200160002081905550826007600086815260200190815260200160002060006101000a81548173ffffffffffffffffffffffffffffffffffffffff021916908373ffffffffffffffffffffffffffffffffffffffff16021790555050505050565b600360009054906101000a900473ffffffffffffffffffffffffffffffffffffffff1681565b600160009054906101000a900473ffffffffffffffffffffffffffffffffffffffff1681565b60046020528060005260406000206000915054906101000a900460ff1681565b600073ffffffffffffffffffffffffffffffffffffffff82169050919050565b600061101f82610ff4565b9050919050565b61102f81611014565b82525050565b600060208201905061104a6000830184611026565b92915050565b6000819050919050565b61106381611050565b82525050565b600060208201905061107e600083018461105a565b92915050565b600080fd5b61109281611050565b811461109d57600080fd5b50565b6000813590506110af81611089565b92915050565b6000602082840312156110cb576110ca611084565b5b60006110d9848285016110a0565b91505092915050565b60006110ed82610ff4565b9050919050565b6110fd816110e2565b82525050565b600060208201905061111860008301846110f4565b92915050565b60008115159050919050565b6111338161111e565b82525050565b600060208201905061114e600083018461112a565b92915050565b61115d8161111e565b811461116857600080fd5b50565b60008135905061117a81611154565b92915050565b6000806040838503121561119757611196611084565b5b60006111a5858286016110a0565b92505060206111b68582860161116b565b9150509250929050565b6111c9816110e2565b81146111d457600080fd5b50565b6000813590506111e6816111c0565b92915050565b6000806040838503121561120357611202611084565b5b6000611211858286016110a0565b9250506020611222858286016111d7565b9150509250929050565b6000806000806080858703121561124657611245611084565b5b6000611254878288016110a0565b9450506020611265878288016111d7565b9350506040611276878288016110a0565b9250506060611287878288016110a0565b91505092959194509250565b6000819050919050565b60006112b86112b36112ae84610ff4565b611293565b610ff4565b9050919050565b60006112ca8261129d565b9050919050565b60006112dc826112bf565b9050919050565b6112ec816112d1565b82525050565b600060208201905061130760008301846112e3565b92915050565b600082825260208201905092915050565b7f4f6e6c7920696e73706563746f722063616e2063616c6c20746869732066756e60008201527f6374696f6e000000000000000000000000000000000000000000000000000000602082015250565b600061137a60258361130d565b91506113858261131e565b604082019050919050565b600060208201905081810360008301526113a98161136d565b9050919050565b7f4e4654206e6f74206c6973746564000000000000000000000000000000000000600082015250565b60006113e6600e8361130d565b91506113f1826113b0565b602082019050919050565b60006020820190508181036000830152611415816113d9565b9050919050565b600081905092915050565b50565b600061143760008361141c565b915061144282611427565b600082019050919050565b60006114588261142a565b9150819050919050565b600060608201905061147760008301866110f4565b61148460208301856110f4565b611491604083018461105a565b949350505050565b7f4f6e6c792062757965722063616e2063616c6c20746869732066756e6374696f60008201527f6e00000000000000000000000000000000000000000000000000000000000000602082015250565b60006114f560218361130d565b915061150082611499565b604082019050919050565b60006020820190508181036000830152611524816114e8565b9050919050565b7f4e6f7420656e6f7567682066756e647300000000000000000000000000000000600082015250565b600061156160108361130d565b915061156c8261152b565b602082019050919050565b6000602082019050818103600083015261159081611554565b9050919050565b7f4f6e6c792073656c6c65722063616e2063616c6c20746869732066756e63746960008201527f6f6e000000000000000000000000000000000000000000000000000000000000602082015250565b60006115f360228361130d565b91506115fe82611597565b604082019050919050565b60006020820190508181036000830152611622816115e6565b9050919050565b7f4e465420616c7265616479206c69737465640000000000000000000000000000600082015250565b600061165f60128361130d565b915061166a82611629565b602082019050919050565b6000602082019050818103600083015261168e81611652565b905091905056fea26469706673582212201e111cd28065e3317e84a22e2c02bb371546bf053c31212a4e42ffc39246607b64736f6c63430008110033",
  "linkReferences": {},
  "deployedLinkReferences": {}
}